S00F0000754320746573742E737265637D
S11300000C9434000C9446000C9446000C94460066
S11300100C9446000C9446000C9446000C94460044
S11300200C9446000C9446000C9446000C94460034
S11300300C9446000C9446000C9464000C94460006
S11300400C9446000C9446000C9446000C94460014
S11300500C9446000C9446000C9446000C94460004
S11300600C9446000C94460011241FBECFEFD8E038
S1130070DEBFCDBF21E0A0E0B1E001C01D92AD32F2
S1130080B207E1F70E944C000C94FD000C940000B0
S11300908FEF8AB91BB808950E9448008FEF8BB97F
S11300A02FE788E391E0215080409040E1F700C0C1
S11300B000001BB82FE788E391E021508040904076
S11300C0E1F700C00000EACF1F920F920FB60F9223
S11300D011248F939F93EF93FF93809109018130B3
S11300E049F580910801815019F58091050190919D
S11300F0060180FF04C08BB182608BB903C08BB151
S11301008D7F8BB980910501909106019695879515
S1130110909306018093050180910701815080939B
S11301200701811104C01092090183E001C083E03A
S11301308093080180910B01811156C080910401C4
S11301408823E9F080910301815080930301811198
S11301504BC01092040110920A01E0910C01F0E0EE
S113016080910201E35FFE4F808380910C018F5FD9
S113017080930C018032C0F110920C0135C0809143
S11301800A01811110C048992FC081E080930A01AF
S11301901092020194E09093030198E0909301017E
S11301A08093000121C0809103018150D9F4489BC0
S11301B007C09091020180910001892B8093020174
S11301C080910001880F809300018091010181508A
S11301D080930101811105C081E08093040183E0D3
S11301E001C083E080930301FF91EF919F918F9170
S11101F00F900FBE0F901F901895F894FFCF3C
S9030000FC
