S01500006D616E75616C436F6E74726F6C2E73726563B0
S11300000C9461000C946B000C946B000C946B00CA
S11300100C946B000C946B000C946B000C946B00B0
S11300200C946B000C946B000C946B000C946B00A0
S11300300C946B000C946B000C946B000C946B0090
S11300400C946B000C946B000C946B000C946B0080
S11300500C946B000C946B000C946B000C946B0070
S11300600C946B000C946B0008000000BE922449B1
S1130070123EABAAAA2ABECDCCCC4C3E00000080D6
S1130080BEABAAAAAA3E00000000BF000000803F49
S11300900000000000084178D3BB4387D1133D1909
S11300A00E3CC3BD4282AD2B3E68EC8276BED98F36
S11300B0E1A93E4C80EFFFBE01C4FF7F3F0000007A
S11300C0000011241FBECFEFD8E0DEBFCDBF0E94D9
S11300D06D000C9473030C940000CF93DF9300D055
S11300E000D0CDB7DEB786EB9BE0AAE0B0E0898311
S11300F09A83AB83BC8389819A81AB81BC81BC0127
S1130100CD010E948400F7CFCF93DF93CDB7DEB744
S113011066970FB6F894DEBF0FBECDBF6B8B7C8B9A
S11301208D8B9E8B6B897C898D899E890E94C901E8
S1130130DC01CB01BC01CD010E945702DC01CB01E3
S113014020E030E040E85FE3BC01CD010E942701DC
S1130150DC01CB01BC01CD010E949301DC01CB0188
S11301609E838D838D819E819A83898331C08B89FF
S11301709C89AD89BE892AE030E040E050E0BC01B2
S1130180CD010E945103DC01CB0198878F838B89B9
S11301909C89AD89BE892AE030E040E050E0BC0192
S11301A0CD010E945103DA01C9018B8B9C8BAD8B6D
S11301B0BE8B4F819E01275F3F4F89819A81820FB9
S11301C0931FFC01408389819A8101979A838983D3
S11301D089819A811816190654F21C821B8215C053
S11301E0000080EC90E0FC018081882F90E0807218
S11301F09927892BB1F386EC90E02985FC012083B3
S11302008B819C8101969C838B832B813C818D8186
S11302109E812817390724F3000080EC90E0FC014C
S11302208081882F90E080729927892BB1F386EC26
S113023090E02AE0FC012083000066960FB6F89453
S1130240DEBF0FBECDBFDF91CF9108955058BB27BD
S1130250AA270E943E010C941D020E940F0238F04E
S11302600E94160220F039F49F3F19F426F40C94EE
S11302700C020EF4E095E7FB0C940602E92F0E94B1
S11302802E0258F3BA17620773078407950720F004
S113029079F4A6F50C9450020EF4E0950B2EBA2FC7
S11302A0A02D0B01B90190010C01CA01A001112478
S11302B0FF27591B99F0593F50F4503E68F11A1624
S11302C0F040A22F232F342F4427585FF3CF4695B5
S11302D037952795A795F0405395C9F77EF41F16D7
S11302E0BA0B620B730B840BBAF09150A1F0FF0FA1
S11302F0BB1F661F771F881FC2F70EC0BA0F621F8D
S1130300731F841F48F4879577956795B795F7957C
S11303109E3F08F0B0CF9395880F08F09927EE0F11
S11303209795879508950E949A016894B1110C9449
S1130330510208950E94360288F09F5798F0B92F11
S11303409927B751B0F0E1F0660F771F881F991F06
S11303501AF0BA95C9F714C0B13091F00E94500256
S1130360B1E008950C945002672F782F8827B85F66
S113037039F0B93FCCF3869577956795B395D9F75E
S11303803EF490958095709561957F4F8F4F9F4F68
S11303900895E89409C097FB3EF490958095709574
S11303A061957F4F8F4F9F4F9923A9F0F92F96E9BD
S11303B0BB279395F695879577956795B795F11132
S11303C0F8CFFAF4BB0F11F460FF1BC06F5F7F4FCF
S11303D08F4F9F4F16C0882311F096E911C07723E1
S11303E021F09EE8872F762F05C0662371F096E8EA
S11303F0862F70E060E02AF09A95660F771F881FB9
S1130400DAF7880F9695879597F9089597F99F6776
S113041080E870E060E008959FEF80EC0895002488
S11304200A941616170618060906089500240A9455
S113043012161306140605060895092E0394000CDB
S113044011F4882352F0BB0F40F4BF2B11F460FF6A
S113045004C06F5F7F4F8F4F9F4F089557FD905893
S1130460440F551F59F05F3F71F04795880F97FB74
S1130470991F61F09F3F79F087950895121613062E
S11304801406551FF2CF4695F1DF08C0161617065D
S11304901806991FF1CF8695710561050894089592
S11304A0E894BB2766277727CB0197F908950E9424
S11304B0670229ED3BE54EED5EE30C94AF0216F0C6
S11304C00C941C030C940C0268940C9406020E9475
S11304D03602A8F39923C1F3AEF3DF93CF931F93AE
S11304E00F93FF92C92FDD2788232AF02197660FE7
S11304F0771F881FDAF720E030E040E85FEB9FE3E6
S1130500883920F0803E38F021968F770E942701A9
S1130510E8E6F0E004C00E942701E5E9F0E00E946B
S11305202A038B01BE01EC01FB2E6F5771097595EF
S1130530771F880B990B0E94CB0128E132E741E336
S11305405FE30E94C202AF2D9801AE01FF900F91AC
S11305501F91CF91DF910E943E010C941D020E94D5
S1130560C2020C941D020E940F0238F00E9416026F
S113057020F0952311F00C9406020C940C02112423
S11305800C9451020E942E0270F3959FC1F3950FB3
S113059050E0551F629FF001729FBB27F00DB11D03
S11305A0639FAA27F00DB11DAA1F649F6627B00D93
S11305B0A11D661F829F2227B00DA11D621F739F7C
S11305C0B00DA11D621F839FA00D611D221F749F8A
S11305D03327A00D611D231F849F600D211D822FD1
S11305E0762F6A2F11249F5750409AF0F1F08823F8
S11305F04AF0EE0FFF1FBB1F661F771F881F915025
S11306005040A9F79E3F510580F00C9406020C94CB
S113061051025F3FE4F3983ED4F38695779567954E
S1130620B795F795E7959F5FC1F7FE2B880F911D4E
S11306309695879597F908959F3F31F0915020F44E
S1130640879577956795B795880F911D96958795AA
S113065097F90895DF93CF931F930F93FF92EF922F
S1130660DF927B018C01689406C0DA2EEF010E94B0
S1130670C202FE01E894A5912591359145915591C9
S1130680A6F3EF010E943E01FE019701A801DA944E
S113069069F7DF90EF90FF900F911F91CF91DF9159
S11306A00895A1E21A2EAA1BBB1BFD010DC0AA1FAF
S11306B0BB1FEE1FFF1FA217B307E407F50720F0C7
S11306C0A21BB30BE40BF50B661F771F881F991F42
S11306D01A9469F760957095809590959B01AC018B
S10D06E0BD01CF010895F894FFCF87
S9030000FC
