S01500006D616E75616C436F6E74726F6C2E73726563B0
S11300000C9461000C947E000C947E000C947E0091
S11300100C947E000C947E000C947E000C947E0064
S11300200C947E000C947E000C947E000C947E0054
S11300300C947E000C947E000C947E000C947E0044
S11300400C947E000C947E000C947E000C947E0034
S11300500C947E000C947E000C947E000C947E0024
S11300600C947E000C947E0008000000BE9224498B
S1130070123EABAAAA2ABECDCCCC4C3E00000080D6
S1130080BEABAAAAAA3E00000000BF000000803F49
S11300900000000000084178D3BB4387D1133D1909
S11300A00E3CC3BD4282AD2B3E68EC8276BED98F36
S11300B0E1A93E4C80EFFFBE01C4FF7F3F0000007A
S11300C0000011241FBECFEFD8E0DEBFCDBF11E08A
S11300D0A0E0B1E0E6EDFAE002C005900D92A03098
S11300E0B107D9F721E0A0E0B1E001C01D92A03032
S11300F0B207E1F70E9480000C9469050C9400009B
S1130100CF93DF93CDB7DEB766970FB6F894DEBF13
S11301100FBECDBF0E9416011A82198281E490E0BD
S11301209C838B831D82CE0145960E94EF018D89AD
S11301309E8999230CF40196959587958E838D89D4
S11301409E890E94450280E090E0AAE7B4E48F8390
S11301509887A987BA8720E030E04AE753E46F81A3
S1130160788589859A850E94B804DC01CB018B8748
S11301709C87AD87BE8720E030E040E85FE36B8575
S11301807C858D859E850E946E0388232CF481E0F6
S113019090E0988B8F873FC020E03FEF4FE757E414
S11301A06B857C858D859E850E945B0418164CF5B5
S11301B020E030E040E251E46F81788589859A85BA
S11301C00E94B804DC01CB01BC01CD010E947A037A
S11301D0DC01CB01988B8F870FC089E190E09A8B6B
S11301E0898B89899A890197F1F79A8B898B8F85F5
S11301F098890197988B8F878F859889892B69F7C0
S113020014C06B857C858D859E850E947A03DC01F4
S1130210CB01988B8F878F8598899C8B8B8B8B894F
S11302209C890197F1F79C8B8B8B7DCFCF93DF93C8
S1130230CDB7DEB70E9422010E94DA010000DF91EF
S1130240CF910895CF93DF93CDB7DEB787E290E0E7
S113025027E230E0F90120812F7CFC01208388E231
S113026090E028E230E0F90120812063FC01208342
S113027089EB90E0FC01108288EB90E028E4FC011B
S113028020830000DF91CF910895CF93DF931F92D5
S1130290CDB7DEB78CEB90E024EAFC0120830000AC
S11302A08CEB90E0FC0180818823D4F789EB90E00B
S11302B0FC018081887F89838981883029F0898144
S11302C0803111F080E001C081E00F90DF91CF9187
S11302D00895CF93DF9300D0CDB7DEB78A838BEB3D
S11302E090E02A81FC0120838CEB90E024E8FC015F
S11302F0208300008CEB90E0FC0180818823D4F7FC
S113030089EB90E0FC018081887F89838981883131
S113031029F08981883211F080E001C081E00F90DA
S11303200F90DF91CF910895CF93DF93CDB7DEB7D0
S11303308CEB90E024ECFC01208300008CEB90E03B
S1130340FC0180818823D4F78BEB90E0FC01808151
S1130350DF91CF910895CF93DF93CDB7DEB78CEBC8
S113036090E024E8FC01208300008CEB90E0FC0189
S113037080818823D4F78BEB90E0FC018081DF91AE
S1130380CF910895CF93DF93CDB7DEB78CEB90E098
S113039024E9FC01208300008CEB90E0FC018081C7
S11303A0882F90E080719927892BB1F70000DF91A5
S11303B0CF910895CF93DF93CDB7DEB70E94450167
S11303C080ED0E9469018BE60E94690180E00E9431
S11303D069010E94C2010000DF91CF9108951F932B
S11303E0CF93DF9300D000D0CDB7DEB79C838B834F
S11303F00E94450180ED0E94690183E40E94690125
S11304000E94450181ED0E9469010E949401082E19
S1130410000C990B982F8827182F0E94AB01812B71
S113042089830E94C2010E94450180ED0E946901F6
S113043084E40E9469010E94450181ED0E946901E2
S11304400E949401082E000C990B982F8827182FCE
S11304500E94AB01812B8A838981082E000C990BA1
S1130460982F8827982F8A81292F282B8B819C816C
S1130470FC0120830E94C20100000F900F900F9096
S11304800F90DF91CF911F910895CF93DF93CDB754
S1130490DEB764970FB6F894DEBF0FBECDBF9C8B5A
S11304A08B8B8B899C89CC01A0E0B0E0BC01CD0191
S11304B00E94A903DC01CB01BC01CD010E946004B0
S11304C0DC01CB0120E030E040E85FE3BC01CD017A
S11304D00E940203DC01CB01BC01CD010E94730325
S11304E0DC01CB019E838D838D819E819A838983D8
S11304F03CC04B895C899A01ADECBCEC0E945A0566
S1130500969587959695879596958795880F991FC3
S11305109C01220F331F220F331F820F931F9A0156
S1130520281B390BC90198878F838B899C899C016F
S1130530ADECBCEC0E945A059695879596958795E7
S1130540969587959C8B8B8B8F8140E3480F9E01FA
S1130550275F3F4F89819A81820F931FFC0140835B
S113056089819A8101979A83898389819A8118164E
S113057019060CF4BECF81E090E09C838B831DC0F0
S1130580000080EC90E0FC018081882F90E0807274
S11305909927892BB1F386EC90E0AE01475F5F4F5A
S11305A02B813C81240F351FF9012081FC0120831C
S11305B08B819C8101969C838B838D819E819C0180
S11305C02F5F3F4F8B819C8182179307CCF20000F1
S11305D080EC90E0FC018081882F90E08072992764
S11305E0892BB1F386EC90E02AE0FC012083000023
S11305F064960FB6F894DEBF0FBECDBFDF91CF91E6
S113060008955058BB27AA270E9419030C9421046B
S11306100E94130438F00E941A0420F039F49F3F1A
S113062019F426F40C9410040EF4E095E7FB0C94F2
S11306300A04E92F0E94320458F3BA1762077307B9
S11306408407950720F079F4A6F50C9454040EF46D
S1130650E0950B2EBA2FA02D0B01B90190010C01CE
S1130660CA01A0011124FF27591B99F0593F50F4E6
S1130670503E68F11A16F040A22F232F342F44273E
S1130680585FF3CF469537952795A795F040539536
S1130690C9F77EF41F16BA0B620B730B840BBAF006
S11306A09150A1F0FF0FBB1F661F771F881FC2F771
S11306B00EC0BA0F621F731F841F48F48795779585
S11306C06795B795F7959E3F08F0B0CF9395880F3F
S11306D008F09927EE0F9795879508950E94E603F1
S11306E008F481E008950E947A036894B1110C948F
S11306F0550408950E943A0488F09F5798F0B92F42
S11307009927B751B0F0E1F0660F771F881F991F42
S11307101AF0BA95C9F714C0B13091F00E9454048C
S1130720B1E008950C945404672F782F8827B85F9C
S113073039F0B93FCCF3869577956795B395D9F79A
S11307403EF490958095709561957F4F8F4F9F4FA4
S11307500895E89409C097FB3EF4909580957095B0
S113076061957F4F8F4F9F4F9923A9F0F92F96E9F9
S1130770BB279395F695879577956795B795F1116E
S1130780F8CFFAF4BB0F11F460FF1BC06F5F7F4F0B
S11307908F4F9F4F16C0882311F096E911C077231D
S11307A021F09EE8872F762F05C0662371F096E826
S11307B0862F70E060E02AF09A95660F771F881FF5
S11307C0DAF7880F9695879597F90895990F000899
S11307D0550FAA0BE0E8FEEF16161706E807F9070F
S11307E0C0F012161306E407F50798F0621B730BAA
S11307F0840B950B39F40A2661F0232B242B252B2B
S113080021F408950A2609F4A140A6958FEF811DCD
S1130810811D089597F99F6780E870E060E008956E
S11308209FEF80EC089500240A9416161706180604
S11308300906089500240A941216130614060506E0
S11308400895092E0394000C11F4882352F0BB0F71
S113085040F4BF2B11F460FF04C06F5F7F4F8F4FD4
S11308609F4F089557FD9058440F551F59F05F3F0F
S113087071F04795880F97FB991F61F09F3F79F0BE
S113088087950895121613061406551FF2CF469540
S1130890F1DF08C0161617061806991FF1CF8695C2
S11308A07105610508940895E894BB2766277727A6
S11308B0CB0197F908950E94E60308F48FEF089599
S11308C00E94700429ED3BE54EED5EE30C94B80400
S11308D016F00C9425050C94100468940C940A04E6
S11308E00E943A04A8F39923C1F3AEF3DF93CF93A4
S11308F01F930F93FF92C92FDD2788232AF0219796
S1130900660F771F881FDAF720E030E040E85FEBDE
S11309109FE3883920F0803E38F021968F770E943B
S11309200203E8E6F0E004C00E940203E5E9F0E017
S11309300E9433058B01BE01EC01FB2E6F57710938
S11309407595771F880B990B0E94AB0328E132E75A
S113095041E35FE30E94CB04AF2D9801AE01FF9009
S11309600F911F91CF91DF910E9419030C942104E0
S11309700E94CB040C9421040E94130438F00E94BA
S11309801A0420F0952311F00C940A040C9410041A
S113099011240C9455040E94320470F3959FC1F302
S11309A0950F50E0551F629FF001729FBB27F00D19
S11309B0B11D639FAA27F00DB11DAA1F649F66276E
S11309C0B00DA11D661F829F2227B00DA11D621FBD
S11309D0739FB00DA11D621F839FA00D611D221F77
S11309E0749F3327A00D611D231F849F600D211D5B
S11309F0822F762F6A2F11249F5750409AF0F1F0DE
S1130A0088234AF0EE0FFF1FBB1F661F771F881F46
S1130A1091505040A9F79E3F510580F00C940A0470
S1130A200C9455045F3FE4F3983ED4F38695779590
S1130A306795B795F795E7959F5FC1F7FE2B880FEC
S1130A40911D9695879597F908959F3F31F09150A0
S1130A5020F4879577956795B795880F911D96959E
S1130A60879597F90895DF93CF931F930F93FF9280
S1130A70EF92DF927B018C01689406C0DA2EEF01BD
S1130A800E94CB04FE01E894A591259135914591EE
S1130A905591A6F3EF010E941903FE019701A801E5
S1130AA0DA9469F7DF90EF90FF900F911F91CF9147
S1130AB0DF910895A29FB001B39FC001A39F700D61
S1130AC0811D1124911DB29F700D811D1124911D52
S1090AD00895F894FFCF25
S9030000FC
