S01500006D616E75616C436F6E74726F6C2E73726563B0
S11300000C9434000C9451000C9451000C94510045
S11300100C9451000C9451000C9451000C94510018
S11300200C9451000C9451000C9451000C94510008
S11300300C9451000C9451000C9451000C945100F8
S11300400C9451000C9451000C9451000C945100E8
S11300500C9451000C9451000C9451000C945100D8
S11300600C9451000C94510011241FBECFEFD8E022
S1130070DEBFCDBF11E0A0E0B1E0ECE9F2E002C0E8
S113008005900D92A43DB107D9F721E0A4EDB1E0AC
S113009001C01D92A43DB207E1F70E9463000C94D5
S11300A04C010C94000080E480937C0087E88093EA
S11300B07A0008950E9468000E94A7000E945300DD
S11300C00E94B50008950E945A000E940001FFCFCB
S11300D087B18F7C87B988B1806388B91092B900E1
S11300E088E48093B800089584EA8093BC00ECEB24
S11300F0F0E080818823ECF79091B900987F9830E4
S113010029F081E0903119F080E0089581E00895AC
S11301108093BB0084E88093BC00ECEBF0E080812A
S11301208823ECF79091B900987F983129F081E009
S1130130983219F080E0089581E0089584E980936D
S1130140BC00ECEBF0E0808184FDFDCF08950E94BB
S1130150740080ED0E9488008BE60E94880080E095
S11301600E9488000E949E00089588E284B981E577
S11301708CBD0895CF938EBD0DB407FE19C014C075
S113018060E070E080E091E00E942001C15049F4F9
S113019060E070E089E191E00E94200180E090E05D
S11301A00FC00DB407FEECCF8DB58F778DBD08C0A1
S11301B060E070E080E091E00E942001CAE0F1CFAD
S11301C0CF910895813049F42A9860E070E08AE480
S11301D091E00E94200181E00895823049F42A9A36
S11301E060E070E087E591E00E94200181E00895DD
S11301F060E070E086E691E00E94200180E00895CE
S113020081E00E94E200811107C060E070E080E9B3
S113021091E00E942001089580E00E94BA008823A2
S113022071F082E00E94BA0082E00E94E200811133
S113023006C060E070E081EB91E00E942001089527
S1130240CF93DF936115710559F06130710541F465
S1130250E0ECF0E0208125FFFDCF2BE12093C600E8
S1130260FC012081222369F0DC011196E0ECF0E02E
S1130270C6ECD0E0908195FFFDCF28832D9121110C
S1130280F9CFE0ECF0E0808185FFFDCF8AE0809338
S10F0290C600DF91CF910895F894FFCFD1
S113029C57616974696E6720666F7220646174615A
S11302AC20746F2073656E64004661696C6564200C
S11302BC746F207472616E736D69742064617461FF
S11302CC2061667465722031302074726965732004
S11302DC2D2045786974696E67006E52462053650B
S11302EC6C6563746564006E524620446573656C7A
S11302FC656374656400496E76616C6964204D6F46
S113030C646520417267202D206E524620696E2050
S113031C616D626967756F757320737461746500C0
S113032C496E6974204661696C65642077697468E8
S113033C204572726F72207374617475732053301C
S113034C00496E6974204661696C65642077697430
S113035C68204572726F72207374617475732044D3
S107036C5330000006
S9030000FC
