S01500006D616E75616C436F6E74726F6C2E73726563B0
S11300000C9461000C9476000C9476000C947600A9
S11300100C9476000C9476000C9476000C94760084
S11300200C9476000C9476000C9476000C94760074
S11300300C9476000C9476000C9476000C94760064
S11300400C9476000C9476000C9476000C94760054
S11300500C9476000C9476000C9476000C94760044
S11300600C9476000C94760008000000BE9224499B
S1130070123EABAAAA2ABECDCCCC4C3E00000080D6
S1130080BEABAAAAAA3E00000000BF000000803F49
S11300900000000000084178D3BB4387D1133D1909
S11300A00E3CC3BD4282AD2B3E68EC8276BED98F36
S11300B0E1A93E4C80EFFFBE01C4FF7F3F0000007A
S11300C0000011241FBECFEFD8E0DEBFCDBF11E08A
S11300D0A0E0B1E0E6E6FCE002C005900D92A43099
S11300E0B107D9F70E9478000C9431060C940000F3
S11300F0CF93DF9300D000D0CDB7DEB785ED97E086
S1130100AAE0B0E089839A83AB83BC8389819A8116
S1130110AB81BC81BC01CD010E948F00F7CFCF938E
S1130120DF93CDB7DEB762970FB6F894DEBF0FBE8C
S1130130CDBF6F87788B898B9A8B6F8578898989F6
S11301409A890E94BF01DC01CB01BC01CD010E9450
S11301504D02DC01CB0120E030E040E85FE3BC016C
S1130160CD010E941D01DC01CB01BC01CD010E9427
S11301708901DC01CB019C838B838A898F938989D4
S11301808F9388898F938F858F9380E091E0892F57
S11301908F9380E091E08F93CE010596292F2F93C2
S11301A08F930E9447038DB79EB708960FB6F894B5
S11301B0DEBF0FBECDBF1A8219821DC0000080ECC5
S11301C090E0FC018081882F90E080729927892B30
S11301D0B1F386EC90E0AE014B5F5F4F29813A8129
S11301E0240F351FF9012081FC01208389819A8124
S11301F001969A83898329813A818B819C8128176E
S11302003907E4F2000080EC90E0FC018081882F43
S113021090E080729927892BB1F386EC90E02AE074
S1130220FC012083000062960FB6F894DEBF0FBE77
S1130230CDBFDF91CF9108955058BB27AA270E94C4
S113024034010C9413020E94050238F00E940C023F
S113025020F039F49F3F19F426F40C9402020EF4B2
S1130260E095E7FB0C94FC01E92F0E94240258F36B
S1130270BA17620773078407950720F079F4A6F587
S11302800C9446020EF4E0950B2EBA2FA02D0B0110
S1130290B90190010C01CA01A0011124FF27591BC7
S11302A099F0593F50F4503E68F11A16F040A22FCD
S11302B0232F342F4427585FF3CF4695379527953E
S11302C0A795F0405395C9F77EF41F16BA0B620B3D
S11302D0730B840BBAF09150A1F0FF0FBB1F661F84
S11302E0771F881FC2F70EC0BA0F621F731F841FC7
S11302F048F4879577956795B795F7959E3F08F0ED
S1130300B0CF9395880F08F09927EE0F97958795AE
S113031008950E9490016894B1110C9447020895C5
S11303200E942C0288F09F5798F0B92F9927B75153
S1130330B0F0E1F0660F771F881F991F1AF0BA9585
S1130340C9F714C0B13091F00E944602B1E008959B
S11303500C944602672F782F8827B85F39F0B93F8D
S1130360CCF3869577956795B395D9F73EF4909538
S11303708095709561957F4F8F4F9F4F0895E894B6
S113038009C097FB3EF490958095709561957F4FD9
S11303908F4F9F4F9923A9F0F92F96E9BB27939587
S11303A0F695879577956795B795F111F8CFFAF497
S11303B0BB0F11F460FF1BC06F5F7F4F8F4F9F4FC8
S11303C016C0882311F096E911C0772321F09EE826
S11303D0872F762F05C0662371F096E8862F70E08C
S11303E060E02AF09A95660F771F881FDAF7880F66
S11303F09695879597F9089597F99F6780E870E037
S113040060E008959FEF80EC089500240A94161686
S1130410170618060906089500240A9412161306EE
S1130420140605060895092E0394000C11F488237C
S113043052F0BB0F40F4BF2B11F460FF04C06F5F98
S11304407F4F8F4F9F4F089557FD9058440F551F6E
S113045059F05F3F71F04795880F97FB991F61F042
S11304609F3F79F087950895121613061406551FB9
S1130470F2CF4695F1DF08C0161617061806991F25
S1130480F1CF86957105610508940895E894BB271A
S113049066277727CB0197F908950E945D0229ED1D
S11304A03BE54EED5EE30C94A50216F00C941203AA
S11304B00C94020268940C94FC010E942C02A8F390
S11304C09923C1F3AEF3DF93CF931F930F93FF925E
S11304D0C92FDD2788232AF02197660F771F881FED
S11304E0DAF720E030E040E85FEB9FE3883920F062
S11304F0803E38F021968F770E941D01E8E6F0E0F7
S113050004C00E941D01E5E9F0E00E9420038B0174
S1130510BE01EC01FB2E6F5771097595771F880B8F
S1130520990B0E94C10128E132E741E35FE30E9495
S1130530B802AF2D9801AE01FF900F911F91CF919A
S1130540DF910E9434010C9413020E94B8020C94AF
S113055013020E94050238F00E940C0220F0952339
S113056011F00C94FC010C94020211240C94470227
S11305700E94240270F3959FC1F3950F50E0551F1C
S1130580629FF001729FBB27F00DB11D639FAA27E4
S1130590F00DB11DAA1F649F6627B00DA11D661F33
S11305A0829F2227B00DA11D621F739FB00DA11D54
S11305B0621F839FA00D611D221F749F3327A00D0E
S11305C0611D231F849F600D211D822F762F6A2FAA
S11305D011249F5750409AF0F1F088234AF0EE0F0F
S11305E0FF1FBB1F661F771F881F91505040A9F73C
S11305F09E3F510580F00C94FC010C9447025F3F30
S1130600E4F3983ED4F3869577956795B795F79577
S1130610E7959F5FC1F7FE2B880F911D96958795EF
S113062097F908959F3F31F0915020F4879577957D
S11306306795B795880F911D9695879597F90895B5
S1130640DF93CF931F930F93FF92EF92DF927B017F
S11306508C01689406C0DA2EEF010E94B802FE01F4
S1130660E894A5912591359145915591A6F3EF0113
S11306700E943401FE019701A801DA9469F7DF9022
S1130680EF90FF900F911F91CF91DF910895AEE00D
S1130690B0E0EDE4F3E00C9408060D891E8986E0D1
S11306A08C831A8309838FEF9FE79E838D83AE012A
S11306B0475E5F4F6F89788DCE0101960E94690372
S11306C0EF81F885E00FF11F10822E96E4E00C9480
S11306D02406ABE0B0E0EFE6F3E00C94FA056C011D
S11306E07B018A01FC0117821682838181FFCCC1C0
S11306F0CE0101963C01F6019381F70193FD8591AA
S113070093FF81917F01882309F4BAC1853239F4BA
S113071093FD859193FF81917F01853229F4B60180
S113072090E00E946005E7CF912C212C312CFFE151
S1130730F315D8F08B3279F038F4803279F08332C3
S1130740A1F4232D20611DC08D3261F0803369F442
S1130750232D216016C0832D8260382EE32DE460A2
S11307603E2E2AC0F32DF8601DC037FC2DC020EDAD
S1130770280F2A3040F08E32B9F436FC81C1232D83
S11307802064322E19C036FE06C08AE0989E200DE1
S11307901124922E11C0EAE02E9E200D1124222E47
S11307A0F32DF0623F2E08C08C3621F4832D80682F
S11307B0382E02C0883641F4F70193FD859193FFEA
S11307C081917F018111B3CF982F9F7D95549330F0
S11307D028F40C5F1F4F9FE399830DC0833631F0DB
S11307E0833771F0833509F059C021C0F801808145
S11307F089830E5F1F4F88248394912C530113C067
S11308002801F2E04F0E511CF801A080B18036FEA1
S113081003C0692D70E002C06FEF7FEFC5010E9435
S113082055054C018201F32DFF773F2E16C0280198
S113083022E0420E511CF801A080B18036FE03C0B4
S1130840692D70E002C06FEF7FEFC5010E944A0579
S11308504C01F32DF0683F2E820133FC1BC0822D26
S113086090E088169906B0F4B60180E290E00E9408
S113087060052A94F4CFF50137FC859137FE819108
S11308805F01B60190E00E94600521102A9421E0E6
S1130890821A91088114910471F7E8C0843611F02A
S11308A0893641F5F80137FE07C060817181828184
S11308B093810C5F1F4F08C060817181072E000C6B
S11308C0880B990B0E5F1F4FF32DFF763F2E97FF7A
S11308D009C090958095709561957F4F8F4F9F4F7C
S11308E0F0683F2E2AE030E0A3010E949C05882E88
S11308F0861845C0853731F4232D2F7EB22E2AE089
S113090030E025C0932D997FB92E8F36C1F018F4AD
S1130910883579F0B5C0803719F0883721F0B0C038
S1130920E92FE061BE2EB4FE0DC0FB2DF460BF2E96
S113093009C034FE0AC0292F2660B22E06C028E062
S113094030E005C020E130E002C020E132E0F801EF
S1130950B7FE07C060817181828193810C5F1F4F54
S113096006C06081718180E090E00E5F1F4FA3019B
S11309700E949C05882E8618FB2DFF773F2E36FE9D
S11309800DC0232D2E7FA22E891458F434FE0BC0E3
S113099032FC09C0832D8E7EA82E05C0B82CA32C52
S11309A003C0B82C01C0B92CA4FE0FC0FE01E80D91
S11309B0F11D8081803321F49A2D997EA92E09C0DE
S11309C0A2FE06C0B394B39404C08A2D867809F0BD
S11309D0B394A3FC11C0A0FE06C0B21488F4280C82
S11309E0922C9B180EC0B21460F4B60180E290E021
S11309F00E946005B394F7CFB21418F42B1802C008
S1130A00982C212CA4FE10C0B60180E390E00E9433
S1130A106005A2FE17C0A1FC03C088E790E002C0F5
S1130A2088E590E0B6010CC08A2D867859F0A1FEC5
S1130A3002C08BE201C080E2A7FC8DE2B60190E027
S1130A400E946005891438F4B60180E390E00E94A6
S1130A5060059A94F7CF8A94F301E80DF11D808123
S1130A60B60190E00E9460058110F5CF222009F4C0
S1130A7042CEB60180E290E00E9460052A94F6CF4F
S1130A80F6018681978102C08FEF9FEF2B96E2E1FA
S1130A900C941606FC010590615070400110D8F7C3
S1130AA0809590958E0F9F1F0895FC0161507040B2
S1130AB001900110D8F7809590958E0F9F1F08958F
S1130AC00F931F93CF93DF93FB01238121FD03C079
S1130AD08FEF9FEF2CC022FF16C0468157812481DF
S1130AE035814217530744F4A081B1819D012F5FE2
S1130AF03F4F318320838C93268137812F5F3F4F73
S1130B003783268314C08B01EC01FB010084F1853B
S1130B10E02D0995892BE1F6D80116968D919C91CB
S1130B201797019617969C938E931697CE01DF9193
S1130B30CF911F910F910895FA01AA27283051F1FE
S1130B40203181F1E8946F936E7F6E5F7F4F8F4FFA
S1130B509F4FAF4FB1E03ED0B4E03CD0670F781F59
S1130B60891F9A1FA11D680F791F8A1F911DA11D3E
S1130B706A0F711D811D911DA11D20D009F4689477
S1130B803F912AE0269F11243019305D3193DEF61F
S1130B90CF010895462F4770405D4193B3E00FD0D5
S1130BA0C9F7F6CF462F4F70405D4A3318F0495DC0
S1130BB031FD4052419302D0A9F7EACFB4E0A695A3
S1130BC09795879577956795BA95C9F700976105C5
S1130BD0710508959B01AC010A2E0694579547951B
S1130BE037952795BA95C9F7620F731F841F951F10
S1130BF0A01D08952F923F924F925F926F927F9221
S1130C008F929F92AF92BF92CF92DF92EF92FF9218
S1130C100F931F93CF93DF93CDB7DEB7CA1BDB0BC4
S1130C200FB6F894DEBF0FBECDBF09942A88398869
S1130C3048885F846E847D848C849B84AA84B98470
S1130C40C884DF80EE80FD800C811B81AA81B9817C
S1130C50CE0FD11D0FB6F894DEBF0FBECDBFED0190
S1090C600895F894FFCF93
S1070C6625640000FD
S9030000FC
