:100000000C9461000C947E000C947E000C947E0095
:100010000C947E000C947E000C947E000C947E0068
:100020000C947E000C947E000C947E000C947E0058
:100030000C947E000C947E000C947E000C947E0048
:100040000C947E000C947E000C947E000C947E0038
:100050000C947E000C947E000C947E000C947E0028
:100060000C947E000C947E0008000000BE9224498F
:10007000123EABAAAA2ABECDCCCC4C3E00000080DA
:10008000BEABAAAAAA3E00000000BF000000803F4D
:100090000000000000084178D3BB4387D1133D190D
:1000A0000E3CC3BD4282AD2B3E68EC8276BED98F3A
:1000B000E1A93E4C80EFFFBE01C4FF7F3F0000007E
:1000C000000011241FBECFEFD8E0DEBFCDBF11E08E
:1000D000A0E0B1E0E6E7F6E102C005900D92AE3394
:1000E000B107D9F721E0AEE3B1E001C01D92AE3314
:1000F000B207E1F70E9480000C94390B0C940000C9
:10010000CF93DF93CDB7DEB7EA970FB6F894DEBF93
:100110000FBECDBF0E947A011A8219821B821C82F7
:100120001D821E8280E090E0A0E8B0E48F83988773
:10013000A987BA871B861C861D861E8680E090E0F4
:10014000A0E8B0E48F87988BA98BBA8B1BAA1CAA56
:100150001DAA1EAA1FAA18AE19AE1AAE8CE092EC08
:10016000A3E8B2E48B8B9C8BAD8BBE8B1F8ACE0138
:100170008B960E945302CE018D960E94AC02CE0156
:100180008F960E940503CE01C1960E945E038BA547
:100190009CA5092E000CAA0BBB0BBC01CD010E9433
:1001A0008806DC01CB0120E030E043E053E4BC01F1
:1001B000CD010E94DE05DC01CB01888F998FAA8FCB
:1001C000BB8F8BA59CA599230CF4019695958795DB
:1001D0008C8F80E091E00E947304888D998DAA8DA8
:1001E000BB8D42E050E0BC01CD010E94AF048DA563
:1001F0009EA50E94B70381E191E00E9473048FA540
:1002000098A90E94B70389A99AA90E94B70380E020
:1002100090E0AAE7B4E48D8F9E8FAF8FB8A320E063
:1002200030E04AE753E46D8D7E8D8F8D98A10E945A
:100230009507DC01CB0189A39AA3ABA3BCA320E063
:1002400030E040E85FE369A17AA18BA19CA10E9404
:10025000D90588232CF481E090E09EA38DA33FC0B4
:1002600020E03FEF4FE757E469A17AA18BA19CA161
:100270000E94380718164CF520E030E040E251E4C7
:100280006D8D7E8D8F8D98A10E949507DC01CB012D
:10029000BC01CD010E945706DC01CB019EA38DA3BA
:1002A0000FC089E190E098A78FA38FA198A501972F
:1002B000F1F798A78FA38DA19EA101979EA38DA36F
:1002C0008DA19EA1892B69F714C069A17AA18BA188
:1002D0009CA10E945706DC01CB019EA38DA38DA19A
:1002E0009EA19AA789A789A59AA50197F1F79AA730
:1002F00089A73DCFCF93DF93CDB7DEB70E948601AC
:100300000E943E020000DF91CF910895CF93DF93CA
:10031000CDB7DEB787E290E027E230E0F901208137
:100320002F7CFC01208388E290E028E230E0F90194
:1003300020812063FC01208389EB90E0FC01108286
:1003400088EB90E028E4FC0120830000DF91CF914E
:100350000895CF93DF931F92CDB7DEB78CEB90E07B
:1003600024EAFC01208300008CEB90E0FC018081FA
:100370008823D4F789EB90E0FC018081887F898312
:100380008981883029F08981803111F080E001C0B5
:1003900081E00F90DF91CF910895CF93DF9300D04C
:1003A000CDB7DEB78A838BEB90E02A81FC012083F6
:1003B0008CEB90E024E8FC01208300008CEB90E0C3
:1003C000FC0180818823D4F789EB90E0FC018081D7
:1003D000887F89838981883129F08981883211F069
:1003E00080E001C081E00F900F90DF91CF910895E0
:1003F000CF93DF93CDB7DEB78CEB90E024ECFC011C
:10040000208300008CEB90E0FC0180818823D4F7EE
:100410008BEB90E0FC018081DF91CF910895CF9329
:10042000DF93CDB7DEB78CEB90E024E8FC012083AE
:1004300000008CEB90E0FC0180818823D4F78BEBEB
:1004400090E0FC018081DF91CF910895CF93DF93FD
:10045000CDB7DEB78CEB90E024E9FC0120830000EF
:100460008CEB90E0FC018081882F90E080719927CF
:10047000892BB1F70000DF91CF910895CF93DF93DF
:10048000CDB7DEB70E94A90180ED0E94CD018BE6B9
:100490000E94CD0180E00E94CD010E942602000052
:1004A000DF91CF9108951F93CF93DF9300D000D0B9
:1004B000CDB7DEB79C838B830E94A90180ED0E949B
:1004C000CD0183E40E94CD010E94A90181ED0E942B
:1004D000CD010E94F801082E000C990B982F882757
:1004E000182F0E940F02812B89830E9426020E94EE
:1004F000A90180ED0E94CD0184E40E94CD010E94FB
:10050000A90181ED0E94CD010E94F801082E000C86
:10051000990B982F8827182F0E940F02812B8A830E
:100520008981082E000C990B382F22278A81082EEA
:10053000000C990B282B392B8B819C81FC0131837A
:1005400020830E94260200000F900F900F900F90C2
:10055000DF91CF911F9108951F93CF93DF9300D028
:1005600000D0CDB7DEB79C838B830E94A90180EDBC
:100570000E94CD0185E40E94CD010E94A90181ED78
:100580000E94CD010E94F801082E000C990B982FB3
:100590008827182F0E940F02812B89830E94260230
:1005A0000E94A90180ED0E94CD0186E40E94CD0148
:1005B0000E94A90181ED0E94CD010E94F801082E40
:1005C000000C990B982F8827182F0E940F02812B5F
:1005D0008A830E9426028981082E000C990B382FED
:1005E00022278A81082E000C990B282B392B8B810E
:1005F0009C81FC013183208300000F900F900F90AD
:100600000F90DF91CF911F9108951F93CF93DF93A8
:1006100000D000D0CDB7DEB79C838B830E94A901A8
:1006200080ED0E94CD018BE30E94CD010E94A901C3
:1006300081ED0E94CD010E94F801082E000C990B5B
:10064000982F8827182F0E940F02812B89830E94E0
:1006500026020E94A90180ED0E94CD018CE30E9438
:10066000CD010E94A90181ED0E94CD010E94F801F7
:10067000082E000C990B982F8827182F0E940F0224
:10068000812B8A830E9426028981082E000C990BF7
:10069000382F22278A81082E000C990B282B392B02
:1006A0008B819C81FC013183208300000F900F908F
:1006B0000F900F90DF91CF911F9108951F93CF93CB
:1006C000DF9300D000D0CDB7DEB79C838B830E9430
:1006D000A90180ED0E94CD018DE30E94CD010E9411
:1006E000A90181ED0E94CD010E94F801082E000CA5
:1006F000990B982F8827182F0E940F02812B89832E
:100700000E9426020E94A90180ED0E94CD018EE385
:100710000E94CD010E94A90181ED0E94CD010E949D
:10072000F801082E000C990B982F8827182F0E948B
:100730000F02812B8A830E9426028981082E000CD9
:10074000990B382F22278A81082E000C990B282B11
:10075000392B8B819C81FC013183208300000F9019
:100760000F900F900F90DF91CF911F910895CF932D
:10077000DF93CDB7DEB764970FB6F894DEBF0FBE38
:10078000CDBF9C8B8B8B8B899C89CC01A0E0B0E08A
:10079000BC01CD010E948606DC01CB01BC01CD016C
:1007A0000E943D07DC01CB0120E030E040E85FE340
:1007B000BC01CD010E946D05DC01CB01BC01CD0166
:1007C0000E945006DC01CB019E838D838D819E812A
:1007D0009A8389833CC04B895C899A01ADECBCEC5F
:1007E0000E94370896958795969587959695879553
:1007F000880F991F9C01220F331F220F331F820F76
:10080000931F9A01281B390BC90198878F838B8905
:100810009C899C01ADECBCEC0E94370896958795AD
:1008200096958795969587959C8B8B8B8F8140E3CA
:10083000480F9E01275F3F4F89819A81820F931F46
:10084000FC01408389819A8101979A8389838981F8
:100850009A81181619060CF4BECF81E090E09C83B3
:100860008B831DC0000080EC90E0FC018081882F0C
:1008700090E080729927892BB1F386EC90E0AE016D
:10088000475F5F4F2B813C81240F351FF901208189
:10089000FC0120838B819C8101969C838B838D81BD
:1008A0009E819C012F5F3F4F8B819C818217930714
:1008B000CCF2000080EC90E0FC018081882F90E079
:1008C00080729927892BB1F386EC90E02AE0FC0135
:1008D0002083000064960FB6F894DEBF0FBECDBF34
:1008E000DF91CF910895CF93DF9300D0CDB7DEB7DE
:1008F0009A83898318C0000080EC90E0FC0180811D
:10090000882F90E080729927892BB1F386EC90E0D4
:1009100029813A81F9012081FC01208389819A8112
:1009200001969A83898389819A81FC018081882339
:1009300011F7000080EC90E0FC018081882F90E0AE
:1009400080729927892BB1F386EC90E02AE0FC01B4
:10095000208300000F900F90DF91CF910895CF93E7
:10096000DF93CDB7DEB76A970FB6F894DEBF0FBE40
:10097000CDBF6D8B7E8B8F8B988F5A8F498F6D89F2
:100980007E898F89988D0E945006DC01CB01988763
:100990008F838F819885092E000CAA0BBB0BBC019D
:1009A000CD010E948806DC01CB019C01AD016D895F
:1009B0007E898F89988D0E946C05DC01CB0189832B
:1009C0009A83AB83BC8388858F938F818F9386E2D4
:1009D00091E0892F8F9386E291E08F93CE010B9661
:1009E000292F2F938F930E944F080F900F900F90F5
:1009F0000F900F900F901E821D8258C020E030E0B3
:100A000040E251E469817A818B819C810E94950743
:100A1000DC01CB0189839A83AB83BC8369817A81B2
:100A20008B819C810E945006DC01CB019A878987CB
:100A3000CE010B960E9446089C01CE010B96820FB8
:100A4000931F2A852F9329852F932AE231E0232FA4
:100A50002F932AE231E02F93292F2F938F930E9417
:100A60004F080F900F900F900F900F900F90898567
:100A70009A85092E000CAA0BBB0BBC01CD010E946C
:100A80008806DC01CB019C01AD0169817A818B81F3
:100A90009C810E946C05DC01CB0189839A83AB8326
:100AA000BC838D819E8101969E838D832D813E81A5
:100AB000898D9A8D281739070CF4A0CFCE010B969B
:100AC0000E94730400006A960FB6F894DEBF0FBE52
:100AD000CDBFDF91CF9108955058BB27AA270E9420
:100AE00084050C94FE060E94F00638F00E94F7067A
:100AF00020F039F49F3F19F426F40C94ED060EF41F
:100B0000E095E7FB0C94E706E92F0E940F0758F3E6
:100B1000BA17620773078407950720F079F4A6F5E2
:100B20000C9431070EF4E0950B2EBA2FA02D0B017B
:100B3000B90190010C01CA01A0011124FF27591B22
:100B400099F0593F50F4503E68F11A16F040A22F28
:100B5000232F342F4427585FF3CF46953795279599
:100B6000A795F0405395C9F77EF41F16BA0B620B98
:100B7000730B840BBAF09150A1F0FF0FBB1F661FDF
:100B8000771F881FC2F70EC0BA0F621F731F841F22
:100B900048F4879577956795B795F7959E3F08F048
:100BA000B0CF9395880F08F09927EE0F979587950A
:100BB00008950E94C30608F481E008950E94F2059A
:100BC0000C94FE060E94F70658F00E94F00640F0D2
:100BD00029F45F3F29F00C94E70651110C94320779
:100BE0000C94ED060E940F0768F39923B1F3552387
:100BF00091F3951B550BBB27AA2762177307840730
:100C000038F09F5F5F4F220F331F441FAA1FA9F3C5
:100C100035D00E2E3AF0E0E832D091505040E695B3
:100C2000001CCAF72BD0FE2F29D0660F771F881F14
:100C3000BB1F261737074807AB07B0E809F0BB0B07
:100C4000802DBF01FF2793585F4F3AF09E3F51051B
:100C500078F00C94E7060C9432075F3FE4F3983E7B
:100C6000D4F3869577956795B795F7959F5FC9F704
:100C7000880F911D9695879597F90895E1E0660F85
:100C8000771F881FBB1F621773078407BA0720F0FE
:100C9000621B730B840BBA0BEE1F88F7E095089567
:100CA0000E9457066894B1110C94320708950E946F
:100CB000170788F09F5798F0B92F9927B751B0F0D0
:100CC000E1F0660F771F881F991F1AF0BA95C9F7D0
:100CD00014C0B13091F00E943107B1E008950C9436
:100CE0003107672F782F8827B85F39F0B93FCCF3E9
:100CF000869577956795B395D9F73EF4909580954D
:100D0000709561957F4F8F4F9F4F0895E89409C06C
:100D100097FB3EF490958095709561957F4F8F4F2E
:100D20009F4F9923A9F0F92F96E9BB279395F69544
:100D3000879577956795B795F111F8CFFAF4BB0FC2
:100D400011F460FF1BC06F5F7F4F8F4F9F4F16C026
:100D5000882311F096E911C0772321F09EE8872FB0
:100D6000762F05C0662371F096E8862F70E060E06C
:100D70002AF09A95660F771F881FDAF7880F9695E5
:100D8000879597F90895990F0008550FAA0BE0E889
:100D9000FEEF16161706E807F907C0F0121613063D
:100DA000E407F50798F0621B730B840B950B39F47D
:100DB0000A2661F0232B242B252B21F408950A26E3
:100DC00009F4A140A6958FEF811D811D089597F923
:100DD0009F6780E870E060E008959FEF80EC0895E1
:100DE00000240A941616170618060906089500240A
:100DF0000A9412161306140605060895092E039484
:100E0000000C11F4882352F0BB0F40F4BF2B11F4F7
:100E100060FF04C06F5F7F4F8F4F9F4F089557FD56
:100E20009058440F551F59F05F3F71F04795880F58
:100E300097FB991F61F09F3F79F0879508951216EF
:100E400013061406551FF2CF4695F1DF08C016169B
:100E500017061806991FF1CF86957105610508944C
:100E60000895E894BB2766277727CB0197F9089563
:100E70000E94C30608F48FEF08950E944D0729EDE4
:100E80003BE54EED5EE30C94950716F00C940208DA
:100E90000C94ED0668940C94E7060E941707A8F3DB
:100EA0009923C1F3AEF3DF93CF931F930F93FF9278
:100EB000C92FDD2788232AF02197660F771F881F07
:100EC000DAF720E030E040E85FEB9FE3883920F07C
:100ED000803E38F021968F770E946D05E8E6F0E0BD
:100EE00004C00E946D05E5E9F0E00E9410088B0146
:100EF000BE01EC01FB2E6F5771097595771F880BAA
:100F0000990B0E94880628E132E741E35FE30E94E3
:100F1000A807AF2D9801AE01FF900F911F91CF91BF
:100F2000DF910E9484050C94FE060E94A8070C9491
:100F3000FE060E94F00638F00E94F70620F0952386
:100F400011F00C94E7060C94ED0611240C94320772
:100F50000E940F0770F3959FC1F3950F50E0551F46
:100F6000629FF001729FBB27F00DB11D639FAA27FE
:100F7000F00DB11DAA1F649F6627B00DA11D661F4D
:100F8000829F2227B00DA11D621F739FB00DA11D6E
:100F9000621F839FA00D611D221F749F3327A00D28
:100FA000611D231F849F600D211D822F762F6A2FC4
:100FB00011249F5750409AF0F1F088234AF0EE0F29
:100FC000FF1FBB1F661F771F881F91505040A9F756
:100FD0009E3F510580F00C94E7060C9432075F3F6A
:100FE000E4F3983ED4F3869577956795B795F79592
:100FF000E7959F5FC1F7FE2B880F911D969587950A
:1010000097F908959F3F31F0915020F48795779597
:101010006795B795880F911D9695879597F90895CF
:10102000DF93CF931F930F93FF92EF92DF927B0199
:101030008C01689406C0DA2EEF010E94A807FE0119
:10104000E894A5912591359145915591A6F3EF012D
:101050000E948405FE019701A801DA9469F7DF90E8
:10106000EF90FF900F911F91CF91DF910895A29F74
:10107000B001B39FC001A39F700D811D1124911D6C
:10108000B29F700D811D1124911D0895FC010190E6
:101090000020E9F7809590958E0F9F1F0895AEE090
:1010A000B0E0E5E5F8E00C94100B0D891E8986E0B0
:1010B0008C831A8309838FEF9FE79E838D83AE0114
:1010C000475E5F4F6F89788DCE0101960E9471084F
:1010D000EF81F885E00FF11F10822E96E4E00C946A
:1010E0002C0BABE0B0E0E7E7F8E00C94020B6C01EE
:1010F0007B018A01FC0117821682838181FFCCC1AA
:10110000CE0101963C01F6019381F70193FD859193
:1011100093FF81917F01882309F4BAC1853239F4A4
:1011200093FD859193FF81917F01853229F4B6016A
:1011300090E00E94680AE7CF912C212C312CFFE12E
:10114000F315D8F08B3279F038F4803279F08332AD
:10115000A1F4232D20611DC08D3261F0803369F42C
:10116000232D216016C0832D8260382EE32DE4608C
:101170003E2E2AC0F32DF8601DC037FC2DC020ED97
:10118000280F2A3040F08E32B9F436FC81C1232D6D
:101190002064322E19C036FE06C08AE0989E200DCB
:1011A0001124922E11C0EAE02E9E200D1124222E31
:1011B000F32DF0623F2E08C08C3621F4832D806819
:1011C000382E02C0883641F4F70193FD859193FFD4
:1011D00081917F018111B3CF982F9F7D95549330DA
:1011E00028F40C5F1F4F9FE399830DC0833631F0C5
:1011F000833771F0833509F059C021C0F80180812F
:1012000089830E5F1F4F88248394912C530113C050
:101210002801F2E04F0E511CF801A080B18036FE8B
:1012200003C0692D70E002C06FEF7FEFC5010E941F
:101230005D0A4C018201F32DFF773F2E16C0280175
:1012400022E0420E511CF801A080B18036FE03C09E
:10125000692D70E002C06FEF7FEFC5010E94520A56
:101260004C01F32DF0683F2E820133FC1BC0822D10
:1012700090E088169906B0F4B60180E290E00E94F2
:10128000680A2A94F4CFF50137FC859137FE8191E5
:101290005F01B60190E00E94680A21102A9421E0C3
:1012A000821A91088114910471F7E8C0843611F014
:1012B000893641F5F80137FE07C06081718182816E
:1012C00093810C5F1F4F08C060817181072E000C55
:1012D000880B990B0E5F1F4FF32DFF763F2E97FF64
:1012E00009C090958095709561957F4F8F4F9F4F66
:1012F000F0683F2E2AE030E0A3010E94A40A882E65
:10130000861845C0853731F4232D2F7EB22E2AE072
:1013100030E025C0932D997FB92E8F36C1F018F497
:10132000883579F0B5C0803719F0883721F0B0C022
:10133000E92FE061BE2EB4FE0DC0FB2DF460BF2E80
:1013400009C034FE0AC0292F2660B22E06C028E04C
:1013500030E005C020E130E002C020E132E0F801D9
:10136000B7FE07C060817181828193810C5F1F4F3E
:1013700006C06081718180E090E00E5F1F4FA30185
:101380000E94A40A882E8618FB2DFF773F2E36FE7A
:101390000DC0232D2E7FA22E891458F434FE0BC0CD
:1013A00032FC09C0832D8E7EA82E05C0B82CA32C3C
:1013B00003C0B82C01C0B92CA4FE0FC0FE01E80D7B
:1013C000F11D8081803321F49A2D997EA92E09C0C8
:1013D000A2FE06C0B394B39404C08A2D867809F0A7
:1013E000B394A3FC11C0A0FE06C0B21488F4280C6C
:1013F000922C9B180EC0B21460F4B60180E290E00B
:101400000E94680AB394F7CFB21418F42B1802C0E4
:10141000982C212CA4FE10C0B60180E390E00E941D
:10142000680AA2FE17C0A1FC03C088E790E002C0D2
:1014300088E590E0B6010CC08A2D867859F0A1FEAF
:1014400002C08BE201C080E2A7FC8DE2B60190E011
:101450000E94680A891438F4B60180E390E00E9483
:10146000680A9A94F7CF8A94F301E80DF11D808100
:10147000B60190E00E94680A8110F5CF222009F49D
:1014800042CEB60180E290E00E94680A2A94F6CF2C
:10149000F6018681978102C08FEF9FEF2B96E2E1E4
:1014A0000C941E0BFC010590615070400110D8F7A0
:1014B000809590958E0F9F1F0895FC01615070409C
:1014C00001900110D8F7809590958E0F9F1F089579
:1014D0000F931F93CF93DF93FB01238121FD03C063
:1014E0008FEF9FEF2CC022FF16C0468157812481C9
:1014F00035814217530744F4A081B1819D012F5FCC
:101500003F4F318320838C93268137812F5F3F4F5C
:101510003783268314C08B01EC01FB010084F18525
:10152000E02D0995892BE1F6D80116968D919C91B5
:101530001797019617969C938E931697CE01DF917D
:10154000CF911F910F910895FA01AA27283051F1E8
:10155000203181F1E8946F936E7F6E5F7F4F8F4FE4
:101560009F4FAF4FB1E03ED0B4E03CD0670F781F43
:10157000891F9A1FA11D680F791F8A1F911DA11D28
:101580006A0F711D811D911DA11D20D009F4689461
:101590003F912AE0269F11243019305D3193DEF609
:1015A000CF010895462F4770405D4193B3E00FD0BF
:1015B000C9F7F6CF462F4F70405D4A3318F0495DAA
:1015C00031FD4052419302D0A9F7EACFB4E0A6958D
:1015D0009795879577956795BA95C9F700976105AF
:1015E000710508959B01AC010A2E06945795479505
:1015F00037952795BA95C9F7620F731F841F951FFA
:10160000A01D08952F923F924F925F926F927F920A
:101610008F929F92AF92BF92CF92DF92EF92FF9202
:101620000F931F93CF93DF93CDB7DEB7CA1BDB0BAE
:101630000FB6F894DEBF0FBECDBF09942A88398853
:1016400048885F846E847D848C849B84AA84B9845A
:10165000C884DF80EE80FD800C811B81AA81B98166
:10166000CE0FD11D0FB6F894DEBF0FBECDBFED017A
:061670000895F894FFCF7D
:101676004779726F73636F7065204F7574707574F8
:1016860000416363656C65726F6D65746572204FAA
:1016960075747075740025642E002564003031322F
:0E16A600333435363738396162636465660067
:00000001FF
