:100000000C9461000C947E000C947E000C947E0095
:100010000C947E000C947E000C947E000C947E0068
:100020000C947E000C947E000C947E000C947E0058
:100030000C947E000C947E000C947E000C947E0048
:100040000C947E000C947E000C947E000C947E0038
:100050000C947E000C947E000C947E000C947E0028
:100060000C947E000C947E0008000000BE9224498F
:10007000123EABAAAA2ABECDCCCC4C3E00000080DA
:10008000BEABAAAAAA3E00000000BF000000803F4D
:100090000000000000084178D3BB4387D1133D190D
:1000A0000E3CC3BD4282AD2B3E68EC8276BED98F3A
:1000B000E1A93E4C80EFFFBE01C4FF7F3F0000007E
:1000C000000011241FBECFEFD8E0DEBFCDBF12E08D
:1000D000A0E0B1E0EEE8FAE002C005900D92A83B86
:1000E000B107D9F722E0A8EBB2E001C01D92A83B0E
:1000F000B207E1F70E9480000C9445050C940000C3
:10010000CF93DF9300D000D01F92CDB7DEB71A8215
:10011000198281E490E09C838B831D820E949A0067
:1001200088E60E94BD009A83898389819A810E9412
:10013000E501F6CFCF93DF93CDB7DEB787E290E04E
:1001400027E230E0F90120812F7CFC01208388E246
:1001500090E028E230E0F90120812063FC01208357
:1001600089EB90E0FC01108288EB90E028E4FC0130
:1001700020830000DF91CF910895CF93DF93CDB717
:10018000DEB763970FB6F894DEBF0FBECDBF8B8B83
:100190001A8219828CEB90E024EAFC01208304C0CF
:1001A00082E491E00E94A1028CEB90E0FC0180814E
:1001B0008823B4F786E691E00E94A10288C01C82E1
:1001C0001B8289E791E00E94A10282EA91E00E94ED
:1001D000A10289EB90E0FC018081882F90E09C8354
:1001E0008B838B819C810E94E50180E090E0AAE7EF
:1001F000B4E48D839E83AF83B88720E030E04AE784
:1002000053E46D817E818F8198850E949404DC0186
:10021000CB0189879A87AB87BC8720E030E040E834
:100220005FE369857A858B859C850E944A038823D4
:100230002CF481E090E09E878D873FC020E03FEF67
:100240004FE757E469857A858B859C850E94370442
:1002500018164CF520E030E040E251E46D817E81DB
:100260008F8198850E949404DC01CB01BC01CD01F3
:100270000E945603DC01CB019E878D870FC089E168
:1002800090E0988B8F878F8598890197F1F7988BED
:100290008F878D859E8501979E878D878D859E850D
:1002A000892B69F714C069857A858B859C850E94A6
:1002B0005603DC01CB019E878D878D859E859A8BA9
:1002C000898B89899A890197F1F79A8B898B89EBB8
:1002D00090E0FC018081883009F071CF85EC91E0DD
:1002E0000E94A1028CEB90E024E8FC0120838BEBC0
:1002F00090E02B89222F30E0220F331F2460FC0175
:10030000208300008CEB90E0FC0180818823D4F7EF
:1003100089EB90E0FC018081883329F483EE91E041
:100320000E94A10242C089EB90E0FC0180818034F0
:1003300099F484EF91E00E94A1028BEB90E0FC0124
:100340008081282F30E044E6429FC001439F900DFA
:1003500011249A83898329C089EB90E0FC01808174
:10036000883499F48FE292E00E94A1028BEB90E036
:10037000FC018081282F30E044E6429FC001439F6A
:10038000900D11249A83898310C080E692E00E9428
:10039000A10284E892E00E94A10289EB90E0FC01B6
:1003A0008081882F90E00E94E5018CEB90E024E9A9
:1003B000FC01208389819A8163960FB6F894DEBF91
:1003C0000FBECDBFDF91CF910895CF93DF93CDB70F
:1003D000DEB764970FB6F894DEBF0FBECDBF9C8B1F
:1003E0008B8B8B899C89CC01A0E0B0E0BC01CD0156
:1003F0000E948503DC01CB01BC01CD010E943C04BD
:10040000DC01CB0120E030E040E85FE3BC01CD013E
:100410000E94DE02DC01CB01BC01CD010E944F0332
:10042000DC01CB019E838D838D819E819A8389839C
:100430003CC04B895C899A01ADECBCEC0E9436054E
:10044000969587959695879596958795880F991F88
:100450009C01220F331F220F331F820F931F9A011B
:10046000281B390BC90198878F838B899C899C0134
:10047000ADECBCEC0E9436059695879596958795D0
:10048000969587959C8B8B8B8F8140E3480F9E01BF
:10049000275F3F4F89819A81820F931FFC01408320
:1004A00089819A8101979A83898389819A81181613
:1004B00019060CF4BECF81E090E09C838B831DC0B5
:1004C000000080EC90E0FC018081882F90E0807239
:1004D0009927892BB1F386EC90E0AE01475F5F4F1F
:1004E0002B813C81240F351FF9012081FC012083E1
:1004F0008B819C8101969C838B838D819E819C0145
:100500002F5F3F4F8B819C8182179307CCF20000B5
:1005100080EC90E0FC018081882F90E08072992728
:10052000892BB1F386EC90E02AE0FC0120830000E7
:1005300064960FB6F894DEBF0FBECDBFDF91CF91AA
:100540000895CF93DF9300D0CDB7DEB79A83898328
:1005500018C0000080EC90E0FC018081882F90E0C2
:1005600080729927892BB1F386EC90E029813A813A
:10057000F9012081FC01208389819A8101969A8367
:10058000898389819A81FC018081882311F7000089
:1005900080EC90E0FC018081882F90E080729927A8
:1005A000892BB1F386EC90E02AE0FC012083000067
:1005B0000F900F90DF91CF9108955058BB27AA2735
:1005C0000E94F5020C94FD030E94EF0338F00E9494
:1005D000F60320F039F49F3F19F426F40C94EC0351
:1005E0000EF4E095E7FB0C94E603E92F0E940E045D
:1005F00058F3BA17620773078407950720F079F458
:10060000A6F50C9430040EF4E0950B2EBA2FA02D15
:100610000B01B90190010C01CA01A0011124FF27AF
:10062000591B99F0593F50F4503E68F11A16F040AA
:10063000A22F232F342F4427585FF3CF46953795A9
:100640002795A795F0405395C9F77EF41F16BA0B6E
:10065000620B730B840BBAF09150A1F0FF0FBB1F1C
:10066000661F771F881FC2F70EC0BA0F621F731F65
:10067000841F48F4879577956795B795F7959E3FC2
:1006800008F0B0CF9395880F08F09927EE0F979553
:10069000879508950E94C20308F481E008950E949E
:1006A00056036894B1110C94310408950E94160405
:1006B00088F09F5798F0B92F9927B751B0F0E1F023
:1006C000660F771F881F991F1AF0BA95C9F714C0D3
:1006D000B13091F00E943004B1E008950C943004E0
:1006E000672F782F8827B85F39F0B93FCCF386950C
:1006F00077956795B395D9F73EF490958095709569
:1007000061957F4F8F4F9F4F0895E89409C097FBE5
:100710003EF490958095709561957F4F8F4F9F4FD8
:100720009923A9F0F92F96E9BB279395F69587951C
:1007300077956795B795F111F8CFFAF4BB0F11F4DF
:1007400060FF1BC06F5F7F4F8F4F9F4F16C0882386
:1007500011F096E911C0772321F09EE8872F762FBC
:1007600005C0662371F096E8862F70E060E02AF0FD
:100770009A95660F771F881FDAF7880F96958795E9
:1007800097F90895990F0008550FAA0BE0E8FEEFBE
:1007900016161706E807F907C0F012161306E40745
:1007A000F50798F0621B730B840B950B39F40A263E
:1007B00061F0232B242B252B21F408950A2609F41C
:1007C000A140A6958FEF811D811D089597F99F6720
:1007D00080E870E060E008959FEF80EC08950024C9
:1007E0000A941616170618060906089500240A9496
:1007F00012161306140605060895092E0394000C1C
:1008000011F4882352F0BB0F40F4BF2B11F460FFAA
:1008100004C06F5F7F4F8F4F9F4F089557FD9058D3
:10082000440F551F59F05F3F71F04795880F97FBB4
:10083000991F61F09F3F79F087950895121613066E
:100840001406551FF2CF4695F1DF08C0161617069D
:100850001806991FF1CF86957105610508940895D2
:10086000E894BB2766277727CB0197F908950E9464
:10087000C20308F48FEF08950E944C0429ED3BE574
:100880004EED5EE30C94940416F00C9401050C9468
:10089000EC0368940C94E6030E941604A8F39923D1
:1008A000C1F3AEF3DF93CF931F930F93FF92C92F42
:1008B000DD2788232AF02197660F771F881FDAF734
:1008C00020E030E040E85FEB9FE3883920F0803E95
:1008D00038F021968F770E94DE02E8E6F0E004C04F
:1008E0000E94DE02E5E9F0E00E940F058B01BE01E7
:1008F000EC01FB2E6F5771097595771F880B990BCB
:100900000E94870328E132E741E35FE30E94A704E6
:10091000AF2D9801AE01FF900F911F91CF91DF9104
:100920000E94F5020C94FD030E94A7040C94FD03A1
:100930000E94EF0338F00E94F60320F0952311F097
:100940000C94E6030C94EC0311240C9431040E94E3
:100950000E0470F3959FC1F3950F50E0551F629FF1
:10096000F001729FBB27F00DB11D639FAA27F00D08
:10097000B11DAA1F649F6627B00DA11D661F829F2F
:100980002227B00DA11D621F739FB00DA11D621F14
:10099000839FA00D611D221F749F3327A00D611D31
:1009A000231F849F600D211D822F762F6A2F112413
:1009B0009F5750409AF0F1F088234AF0EE0FFF1F46
:1009C000BB1F661F771F881F91505040A9F79E3F9D
:1009D000510580F00C94E6030C9431045F3FE4F37E
:1009E000983ED4F3869577956795B795F795E795F3
:1009F0009F5FC1F7FE2B880F911D9695879597F9FC
:100A000008959F3F31F0915020F487957795679531
:100A1000B795880F911D9695879597F90895DF935F
:100A2000CF931F930F93FF92EF92DF927B018C0184
:100A3000689406C0DA2EEF010E94A704FE01E89434
:100A4000A5912591359145915591A6F3EF010E940D
:100A5000F502FE019701A801DA9469F7DF90EF90A3
:100A6000FF900F911F91CF91DF910895A29FB00148
:100A7000B39FC001A39F700D811D1124911DB29FD2
:0E0A8000700D811D1124911D0895F894FFCF73
:100A8E00537461727420636F6E646974696F6E2043
:100A9E006E6F74207472616E736D69747465640028
:100AAE0044657669636520466F756E642061743A9D
:100ABE00004E6F204465766963657320466F756ED0
:100ACE00640057616974696E6720666F72204163B6
:100ADE006B6E6F776C6564676D656E74206F6620E4
:100AEE0053544152540053544152542041636B6E3F
:100AFE006F776C656467656400416E204572726F36
:100B0E0072204F63637572726564205768696C65F5
:100B1E0020496E697469616C697A696E6720493221
:100B2E0043004578706563746564203038206275C3
:100B3E007420676F742074686520666F6C6C6F77B5
:100B4E00696E673A0049324320496E697469616C77
:100B5E00697A6174696F6E2053756363657373662A
:100B6E00756C004172626974726174696F6E204CAB
:100B7E006F7374004D6F6465205472616E736D698E
:100B8E00747465643A204D617374657220526563A6
:100B9E0065697665204D6F64652E204465766963C0
:100BAE00652041636B6E6F776C6564676564004E9C
:100BBE006F2041636B6E6F776C6564676D656E74E5
:100BCE002066726F6D204465766963653A204174C4
:100BDE0074656D7074696E6720746F204669780055
:100BEE00446964206E6F74207265676973746572F0
:100BFE002076616C69642073746174757320636F01
:100C0E006465210045787065637465642033382C03
:100C1E002034302C206F722034382C2062757420D2
:100C2E0072656365697665642074686520666F6CAD
:080C3E006C6F77696E673A00E4
:00000001FF
