S01500006D616E75616C436F6E74726F6C2E73726563B0
S11300000C9461000C947E000C947E000C947E0091
S11300100C947E000C947E000C947E000C947E0064
S11300200C947E000C947E000C947E000C947E0054
S11300300C947E000C947E000C947E000C947E0044
S11300400C947E000C947E000C947E000C947E0034
S11300500C947E000C947E000C947E000C947E0024
S11300600C947E000C947E0008000000BE9224498B
S1130070123EABAAAA2ABECDCCCC4C3E00000080D6
S1130080BEABAAAAAA3E00000000BF000000803F49
S11300900000000000084178D3BB4387D1133D1909
S11300A00E3CC3BD4282AD2B3E68EC8276BED98F36
S11300B0E1A93E4C80EFFFBE01C4FF7F3F0000007A
S11300C0000011241FBECFEFD8E0DEBFCDBF11E08A
S11300D0A0E0B1E0ECE5FAE002C005900D92A0309A
S11300E0B107D9F721E0A0E0B1E001C01D92A03032
S11300F0B207E1F70E9480000C942C050C940000D8
S1130100CF93DF93CDB7DEB769970FB6F894DEBF10
S11301100FBECDBF1A82198281E490E09C838B8349
S11301201D82AE01485E5F4F9E012A5E3F4FCE01A5
S11301304496B9010E94A8018C899D890E940802F5
S113014080E090E0AAE7B4E48E839F83A887B98710
S113015020E030E04AE753E46E817F818885998509
S11301600E947B04DC01CB018A879B87AC87BD8717
S113017020E030E040E85FE36A857B858C859D85DF
S11301800E94310388232CF481E090E09F878E87BE
S11301903FC020E03FEF4FE757E46A857B858C85BD
S11301A09D850E941E0418164CF520E030E040E2C4
S11301B051E46E817F81888599850E947B04DC01EE
S11301C0CB01BC01CD010E943D03DC01CB019F8723
S11301D08E870FC089E190E0998B888B88899989F3
S11301E00197F1F7998B888B8E859F8501979F875F
S11301F08E878E859F85892B69F714C06A857B85D8
S11302008C859D850E943D03DC01CB019F878E87F1
S11302108E859F859B8B8A8B8A899B890197F1F7B1
S11302209B8B8A8B7ECFCF93DF931F92CDB7DEB7A4
S11302308CEB90E024EAFC01208300008CEB90E03E
S1130240FC0180818823D4F789EB90E0FC01808154
S1130250887F89838981883029F08981803111F0F0
S113026080E001C081E00F90DF91CF910895CF939A
S1130270DF9300D0CDB7DEB78A838BEB90E02A8181
S1130280FC0120838CEB90E024E8FC012083000037
S11302908CEB90E0FC0180818823D4F789EB90E01B
S11302A0FC018081887F89838981883129F0898153
S11302B0883211F080E001C081E00F900F90DF914F
S11302C0CF910895CF93DF93CDB7DEB78CEB90E059
S11302D024ECFC01208300008CEB90E0FC01808185
S11302E08823D4F78BEB90E0FC018081DF91CF91E0
S11302F00895CF93DF93CDB7DEB78CEB90E024E87D
S1130300FC01208300008CEB90E0FC0180818823B9
S1130310D4F78BEB90E0FC018081DF91CF910895BD
S1130320CF93DF93CDB7DEB78CEB90E024E9FC01EB
S1130330208300008CEB90E0FC018081882F90E00A
S113034080719927892BB1F70000DF91CF9108952F
S11303500F931F93CF93DF9300D000D000D0CDB77D
S1130360DEB79A8389837C836B835E834D830E948B
S1130370130180ED0E94370183E40E9437010E943B
S1130380130181ED0E9437010E946201882F90E0E1
S1130390182F00270E946201882F90E09801282BD3
S11303A0392B89819A81FC01318320830E94620167
S11303B0882F90E0182F00270E946201882F90E078
S11303C09801282B392B8B819C81FC01318320835C
S11303D00E946201882F90E0182F00270E94790163
S11303E0882F90E09801282B392B8D819E81FC0168
S11303F0318320830E949001000026960FB6F89462
S1130400DEBF0FBECDBFDF91CF911F910F91089535
S1130410CF93DF93CDB7DEB764970FB6F894DEBF02
S11304200FBECDBF9C8B8B8B8B899C89CC01A0E0AC
S1130430B0E0BC01CD010E946C03DC01CB01BC0126
S1130440CD010E942304DC01CB0120E030E040E830
S11304505FE3BC01CD010E94C502DC01CB01BC01FC
S1130460CD010E943603DC01CB019E838D838D81F7
S11304709E819A8389833CC04B895C899A01ADEC47
S1130480BCEC0E941D059695879596958795969543
S11304908795880F991F9C01220F331F220F331F4A
S11304A0820F931F9A01281B390BC90198878F83E8
S11304B08B899C899C01ADECBCEC0E941D05969532
S11304C0879596958795969587959C8B8B8B8F8131
S11304D040E3480F9E01275F3F4F89819A81820F35
S11304E0931FFC01408389819A8101979A838983B0
S11304F089819A81181619060CF4BECF81E090E028
S11305009C838B831DC0000080EC90E0FC01808103
S1130510882F90E080729927892BB1F386EC90E0C4
S1130520AE01475F5F4F2B813C81240F351FF901DA
S11305302081FC0120838B819C8101969C838B8389
S11305408D819E819C012F5F3F4F8B819C818217FF
S11305509307CCF2000080EC90E0FC018081882FAE
S113056090E080729927892BB1F386EC90E02AE021
S1130570FC012083000064960FB6F894DEBF0FBE22
S1130580CDBFDF91CF9108955058BB27AA270E9471
S1130590DC020C94E4030E94D60338F00E94DD03CD
S11305A020F039F49F3F19F426F40C94D3030EF48D
S11305B0E095E7FB0C94CD03E92F0E94F50358F373
S11305C0BA17620773078407950720F079F4A6F534
S11305D00C9417040EF4E0950B2EBA2FA02D0B01EA
S11305E0B90190010C01CA01A0011124FF27591B74
S11305F099F0593F50F4503E68F11A16F040A22F7A
S1130600232F342F4427585FF3CF469537952795EA
S1130610A795F0405395C9F77EF41F16BA0B620BE9
S1130620730B840BBAF09150A1F0FF0FBB1F661F30
S1130630771F881FC2F70EC0BA0F621F731F841F73
S113064048F4879577956795B795F7959E3F08F099
S1130650B0CF9395880F08F09927EE0F979587955B
S113066008950E94A90308F481E008950E943D03BF
S11306706894B1110C94180408950E94FD0388F045
S11306809F5798F0B92F9927B751B0F0E1F0660F52
S1130690771F881F991F1AF0BA95C9F714C0B13093
S11306A091F00E941704B1E008950C941704672F89
S11306B0782F8827B85F39F0B93FCCF386957795C2
S11306C06795B395D9F73EF49095809570956195AB
S11306D07F4F8F4F9F4F0895E89409C097FB3EF4D6
S11306E090958095709561957F4F8F4F9F4F99237B
S11306F0A9F0F92F96E9BB279395F69587957795F9
S11307006795B795F111F8CFFAF4BB0F11F460FFB8
S11307101BC06F5F7F4F8F4F9F4F16C0882311F010
S113072096E911C0772321F09EE8872F762F05C024
S1130730662371F096E8862F70E060E02AF09A95BF
S1130740660F771F881FDAF7880F9695879597F9B4
S11307500895990F0008550FAA0BE0E8FEEF16164E
S11307601706E807F907C0F012161306E407F507A1
S113077098F0621B730B840B950B39F40A2661F015
S1130780232B242B252B21F408950A2609F4A140B8
S1130790A6958FEF811D811D089597F99F6780E8C5
S11307A070E060E008959FEF80EC089500240A94BF
S11307B01616170618060906089500240A94121638
S11307C01306140605060895092E0394000C11F46B
S11307D0882352F0BB0F40F4BF2B11F460FF04C018
S11307E06F5F7F4F8F4F9F4F089557FD9058440F71
S11307F0551F59F05F3F71F04795880F97FB991F7C
S113080061F09F3F79F08795089512161306140638
S1130810551FF2CF4695F1DF08C0161617061806C5
S1130820991FF1CF86957105610508940895E894A0
S1130830BB2766277727CB0197F908950E94A90360
S113084008F48FEF08950E94330429ED3BE54EED43
S11308505EE30C947B0416F00C94E8040C94D3032C
S113086068940C94CD030E94FD03A8F39923C1F36B
S1130870AEF3DF93CF931F930F93FF92C92FDD271E
S113088088232AF02197660F771F881FDAF720E064
S113089030E040E85FEB9FE3883920F0803E38F099
S11308A021968F770E94C502E8E6F0E004C00E941A
S11308B0C502E5E9F0E00E94F6048B01BE01EC01FB
S11308C0FB2E6F5771097595771F880B990B0E9442
S11308D06E0328E132E741E35FE30E948E04AF2D0B
S11308E09801AE01FF900F911F91CF91DF910E946B
S11308F0DC020C94E4030E948E040C94E4030E9432
S1130900D60338F00E94DD0320F0952311F00C94F7
S1130910CD030C94D30311240C9418040E94F50302
S113092070F3959FC1F3950F50E0551F629FF0013E
S1130930729FBB27F00DB11D639FAA27F00DB11D57
S1130940AA1F649F6627B00DA11D661F829F2227E0
S1130950B00DA11D621F739FB00DA11D621F839F67
S1130960A00D611D221F749F3327A00D611D231F3D
S1130970849F600D211D822F762F6A2F11249F578B
S113098050409AF0F1F088234AF0EE0FFF1FBB1F8E
S1130990661F771F881F91505040A9F79E3F51054D
S11309A080F00C94CD030C9418045F3FE4F3983E5C
S11309B0D4F3869577956795B795F795E7959F5FF7
S11309C0C1F7FE2B880F911D9695879597F9089589
S11309D09F3F31F0915020F4879577956795B795AF
S11309E0880F911D9695879597F90895DF93CF9376
S11309F01F930F93FF92EF92DF927B018C01689417
S1130A0006C0DA2EEF010E948E04FE01E894A5913F
S1130A102591359145915591A6F3EF010E94DC0291
S1130A20FE019701A801DA9469F7DF90EF90FF9037
S1130A300F911F91CF91DF910895A29FB001B39FB1
S1130A40C001A39F700D811D1124911DB29F700DD3
S10F0A50811D1124911D0895F894FFCF1E
S9030000FC
