:100000000C9461000C9476000C9476000C947600AD
:100010000C9476000C9476000C9476000C94760088
:100020000C9476000C9476000C9476000C94760078
:100030000C9476000C9476000C9476000C94760068
:100040000C9476000C9476000C9476000C94760058
:100050000C9476000C9476000C9476000C94760048
:100060000C9476000C94760008000000BE9224499F
:10007000123EABAAAA2ABECDCCCC4C3E00000080DA
:10008000BEABAAAAAA3E00000000BF000000803F4D
:100090000000000000084178D3BB4387D1133D190D
:1000A0000E3CC3BD4282AD2B3E68EC8276BED98F3A
:1000B000E1A93E4C80EFFFBE01C4FF7F3F0000007E
:1000C000000011241FBECFEFD8E0DEBFCDBF11E08E
:1000D000A0E0B1E0E2E3F8E002C005900D92A432A6
:1000E000B107D9F70E949A000C9417040C940000F1
:1000F00080E480937C0087E880937A000895ECE7A1
:10010000F0E09081907F8F70892B8083EAE7F0E0A8
:10011000808180648083808186FDFDCF809178001E
:100120009091790008950E94C4000E9403010E94EA
:10013000780008950E94930080E00E947F00EC0107
:1001400060E070E080E091E00E94B101C83022E000
:10015000D20739F460E070E08EE091E00E94B101D6
:1001600006C060E070E086E191E00E94B101CE013E
:100170000E9411018FEF90E722E0815090402040D3
:10018000E1F700C00000D8CF87B18F7C87B988B174
:10019000806388B91092B90088E48093B80008950C
:1001A00084EA8093BC00ECEBF0E080818823ECF7DC
:1001B0009091B900987F983029F081E0903119F042
:1001C00080E0089581E008958093BB0084E88093E7
:1001D000BC00ECEBF0E080818823ECF79091B90053
:1001E000987F983129F081E0983219F080E00895E5
:1001F00081E0089584E98093BC00ECEBF0E080811D
:1002000084FDFDCF08950E94D00080ED0E94E4009F
:100210008BE60E94E40080E00E94E4000E94FA0065
:1002200008958F929F92AF92BF92EF92FF920F9399
:100230001F93CF93DF93CDB7DEB72A970FB6F8940D
:10024000DEBF0FBECDBF8C01009749F4E0ECF0E0BB
:10025000808185FFFDCF80E38093C60069C0BC012B
:1002600080E090E00E9480020E940E0320E030E0D7
:1002700040E85FE30E94DE010E944A024B015C01FC
:1002800016161706BCF5FB01319681E090E08C0F45
:100290009D1FE80FF91F7E0192E0E90EF11C980105
:1002A000ADECBCEC0E940804AC0156954795569500
:1002B000479556954795CA01880F991F440F551FBA
:1002C000440F551F440F551F480F591FD801A41B39
:1002D000B50BAD01ADECBCEC0E9408048C01169589
:1002E00007951695079516950795405D4293EE156F
:1002F000FF05A9F6C401019682309105CCF0AE014C
:100300004E5F5F4F4C0181E090E08C0F9D1F880E87
:10031000991EE0ECF0E026EC30E0808185FFFDCF17
:10032000DA018D91AD01D9018C9384169506A9F758
:10033000E0ECF0E0808185FFFDCF8AE08093C6008D
:100340002A960FB6F894DEBF0FBECDBFDF91CF91D6
:100350001F910F91FF90EF90BF90AF909F908F9063
:100360000895CF93DF936115710559F061307105E0
:1003700041F4E0ECF0E0208125FFFDCF2BE120935C
:10038000C600FC012081222369F0DC011196E0EC1B
:10039000F0E0C6ECD0E0908195FFFDCF28832D9151
:1003A0002111F9CFE0ECF0E0808185FFFDCF8AE0FC
:1003B0008093C600DF91CF9108955058BB27AA279C
:1003C0000E94F5010C94D4020E94C60238F00E94EB
:1003D000CD0220F039F49F3F19F426F40C94C302A7
:1003E0000EF4E095E7FB0C94BD02E92F0E94E502B4
:1003F00058F3BA17620773078407950720F079F45A
:10040000A6F50C9407030EF4E0950B2EBA2FA02D41
:100410000B01B90190010C01CA01A0011124FF27B1
:10042000591B99F0593F50F4503E68F11A16F040AC
:10043000A22F232F342F4427585FF3CF46953795AB
:100440002795A795F0405395C9F77EF41F16BA0B70
:10045000620B730B840BBAF09150A1F0FF0FBB1F1E
:10046000661F771F881FC2F70EC0BA0F621F731F67
:10047000841F48F4879577956795B795F7959E3FC4
:1004800008F0B0CF9395880F08F09927EE0F979555
:10049000879508950E9451026894B1110C94080345
:1004A00008950E94ED0288F09F5798F0B92F992780
:1004B000B751B0F0E1F0660F771F881F991F1AF04F
:1004C000BA95C9F714C0B13091F00E940703B1E0AA
:1004D00008950C940703672F782F8827B85F39F0A9
:1004E000B93FCCF3869577956795B395D9F73EF4E8
:1004F00090958095709561957F4F8F4F9F4F089590
:10050000E89409C097FB3EF49095809570956195AD
:100510007F4F8F4F9F4F9923A9F0F92F96E9BB2763
:100520009395F695879577956795B795F111F8CFDF
:10053000FAF4BB0F11F460FF1BC06F5F7F4F8F4F4A
:100540009F4F16C0882311F096E911C0772321F040
:100550009EE8872F762F05C0662371F096E8862FD8
:1005600070E060E02AF09A95660F771F881FDAF72F
:10057000880F9695879597F9089597F99F6780E872
:1005800070E060E008959FEF80EC089500240A94E5
:100590001616170618060906089500240A9412165E
:1005A0001306140605060895092E0394000C11F491
:1005B000882352F0BB0F40F4BF2B11F460FF04C03E
:1005C0006F5F7F4F8F4F9F4F089557FD9058440F97
:1005D000551F59F05F3F71F04795880F97FB991FA2
:1005E00061F09F3F79F0879508951216130614065F
:1005F000551FF2CF4695F1DF08C0161617061806EC
:10060000991FF1CF86957105610508940895E894C6
:10061000BB2766277727CB0197F908950E941E0311
:1006200029ED3BE54EED5EE30C94660316F00C9469
:10063000D3030C94C30268940C94BD020E94ED0293
:10064000A8F39923C1F3AEF3DF93CF931F930F93D6
:10065000FF92C92FDD2788232AF02197660F771F85
:10066000881FDAF720E030E040E85FEB9FE388394D
:1006700020F0803E38F021968F770E94DE01E8E678
:10068000F0E004C00E94DE01E5E9F0E00E94E10331
:100690008B01BE01EC01FB2E6F5771097595771F19
:1006A000880B990B0E94820228E132E741E35FE365
:1006B0000E947903AF2D9801AE01FF900F911F9119
:1006C000CF91DF910E94F5010C94D4020E9479032E
:1006D0000C94D4020E94C60238F00E94CD0220F091
:1006E000952311F00C94BD020C94C30211240C94B8
:1006F00008030E94E50270F3959FC1F3950F50E047
:10070000551F629FF001729FBB27F00DB11D639FC3
:10071000AA27F00DB11DAA1F649F6627B00DA11D69
:10072000661F829F2227B00DA11D621F739FB00D0F
:10073000A11D621F839FA00D611D221F749F33277F
:10074000A00D611D231F849F600D211D822F762F18
:100750006A2F11249F5750409AF0F1F088234AF0F5
:10076000EE0FFF1FBB1F661F771F881F9150504061
:10077000A9F79E3F510580F00C94BD020C9408032C
:100780005F3FE4F3983ED4F3869577956795B795E8
:10079000F795E7959F5FC1F7FE2B880F911D969502
:1007A000879597F908959F3F31F0915020F48795F0
:1007B00077956795B795880F911D9695879597F9C9
:1007C0000895DF93CF931F930F93FF92EF92DF92E1
:1007D0007B018C01689406C0DA2EEF010E94790338
:1007E000FE01E894A5912591359145915591A6F387
:1007F000EF010E94F501FE019701A801DA9469F763
:10080000DF90EF90FF900F911F91CF91DF910895AE
:10081000A29FB001B39FC001A39F700D811D112441
:10082000911DB29F700D811D1124911D0895F894A2
:02083000FFCFF8
:100832004A6F79737469636B2044617461004E6519
:10084200757472616C0048616C66205468726F74D2
:04085200746C65005D
:00000001FF
